:020000040800F2
:1000000000000120F92300084924000849240008C1
:100010004924000849240008492400080000000081
:10002000000000000000000000000000492400085B
:10003000492400080000000049240008591700085E
:100040000000000049240008492400084924000851
:1000500049240008492400084924000849240008CC
:1000600049240008492400084924000849240008BC
:1000700049240008492400084924000849240008AC
:100080004924000849240008492400080000000011
:1000900000000000000000000000000049240008EB
:1000A000492400084924000849240008492400087C
:1000B0003515000859150008751500084924000871
:1000C000492400084924000849240008492400085C
:1000D00049240008AD1A0008C91A000800000000F1
:1000E00049240008492400084924000800000000B1
:1000F000000000000000000000000000492400088B
:100100000000000049240008911500084924000857
:1001100000000000000000000000000000000000DF
:1001200049240008492400084924000849240008FB
:10013000492400080000000000000000000000004A
:10014000000000000000000000000000492400083A
:10015000492400084924000849240008E51A000839
:1001600049240008492400080000000000000000A5
:10017000000000000000000000000000000000007F
:10018000000000000000000000000000000000006F
:0401900049240008F6
:1001980010B5054C237833B9044B13B10448AFF3B9
:1001A80000800123237010BD000000200000000023
:1001B8009424000808B5034B1BB103490348AFF367
:1001C800008008BD000000000400002094240008FE
:1001D80081F0004102E000BF83F0004330B54FEAF0
:1001E80041044FEA430594EA050F08BF90EA020F5D
:1001F8001FBF54EA000C55EA020C7FEA645C7FEAF0
:10020800655C00F0E2804FEA5454D4EB5555B8BF12
:100218006D420CDD2C4480EA020281EA030382EA83
:10022800000083EA010180EA020281EA0303362D15
:1002380088BF30BD11F0004F4FEA01314FF4801CE8
:100248004CEA113102D0404261EB410113F0004FFA
:100258004FEA03334CEA133302D0524263EB4303B1
:1002680094EA050F00F0A780A4F10104D5F1200E4F
:100278000DDB02FA0EFC22FA05F2801841F10001AA
:1002880003FA0EF2801843FA05F359410EE0A5F17E
:1002980020050EF1200E012A03FA0EFC28BF4CF0AF
:1002A800020C43FA05F3C01851EBE37101F0004565
:1002B80007D54FF0000EDCF1000C7EEB00006EEB72
:1002C8000101B1F5801F1BD3B1F5001F0CD34908FC
:1002D8005FEA30004FEA3C0C04F101044FEA445253
:1002E80012F5800F80F09A80BCF1004F08BF5FEADA
:1002F800500C50F1000041EB045141EA050130BDBA
:100308005FEA4C0C404141EB0101013C28BFB1F5CB
:10031800801FE9D291F0000F04BF01460020B1FA16
:1003280081F308BF2033A3F10B03B3F120020CDAE9
:100338000C3208DD02F1140CC2F10C0201FA0CF0C7
:1003480021FA02F10CE002F11402D8BFC2F1200C2C
:1003580001FA02F120FA0CFCDCBF41EA0C019040E2
:10036800E41AA2BF01EB0451294330BD6FEA04042B
:100378001F3C1CDA0C340EDC04F11404C4F1200216
:1003880020FA04F001FA02F340EA030021FA04F328
:1003980045EA030130BDC4F10C04C4F1200220FA7F
:1003A80002F001FA04F340EA0300294630BD21FABD
:1003B80004F0294630BD94F0000F83F4801306BF83
:1003C80081F480110134013D4EE77FEA645C18BF77
:1003D8007FEA655C29D094EA050F08BF90EA020F0E
:1003E80005D054EA000C04BF1946104630BD91EA06
:1003F800030F1EBF0021002030BD5FEA545C05D109
:100408004000494128BF41F0004130BD14F5800447
:100418003CBF01F5801130BD01F0004545F0FE41BB
:1004280041F470014FF0000030BD7FEA645C1ABFF0
:10043800194610467FEA655C1CBF0B46024650EA27
:10044800013406BF52EA033591EA030F41F4002153
:1004580030BD00BF90F0000F04BF0021704730B5D9
:100468004FF4806404F132044FF000054FF00001AE
:1004780050E700BF90F0000F04BF0021704730B56F
:100488004FF4806404F1320410F0004548BF404244
:100498004FF000013EE700BF42004FEAE2014FEA99
:1004A80031014FEA02701FBF12F07F4393F07F4F74
:1004B80081F06051704732F07F4208BF704793F077
:1004C8007F4F04BF41F40021704730B54FF460748A
:1004D80001F0004521F000411CE700BF50EA01028D
:1004E80008BF704730B54FF000050AE050EA010236
:1004F80008BF704730B511F0004502D5404261EBA6
:1005080041014FF4806404F132045FEA915C3FF4E6
:10051800D8AE4FF003025FEADC0C18BF03325FEA83
:10052800DC0C18BF033202EBDC02C2F1200300FA34
:1005380003FC20FA02F001FA03FE40EA0E0021FA59
:1005480002F11444BDE600BF70B54FF0FF0C4CF447
:10055800E06C1CEA11541DBF1CEA135594EA0C0FF9
:1005680095EA0C0F00F0DEF82C4481EA030621EA34
:100578004C5123EA4C5350EA013518BF52EA03356F
:1005880041F4801143F4801338D0A0FB02CE4FF021
:100598000005E1FB02E506F00042E0FB03E54FF051
:1005A8000006E1FB03569CF0000F18BF4EF0010E49
:1005B800A4F1FF04B6F5007F64F5407404D25FEA45
:1005C8004E0E6D4146EB060642EAC62141EA5551F8
:1005D8004FEAC52040EA5E504FEACE2EB4F1FD0C3A
:1005E80088BFBCF5E06F1ED8BEF1004F08BF5FEAB8
:1005F800500E50F1000041EB045170BD06F000466A
:1006080046EA010140EA020081EA0301B4EB5C0416
:10061800C2BFD4EB0C0541EA045170BD41F480110E
:100628004FF0000E013C00F3AB8014F1360FDEBF33
:10063800002001F0004170BDC4F10004203C35DA0F
:100648000C341BDC04F11404C4F1200500FA05F392
:1006580020FA04F001FA05F240EA020001F0004233
:1006680021F0004110EBD37021FA04F642EB0601A9
:100678005EEA430E08BF20EAD37070BDC4F10C04D3
:10068800C4F1200500FA04F320FA05F001FA04F297
:1006980040EA020001F0004110EBD37041F1000183
:1006A8005EEA430E08BF20EAD37070BDC4F120058E
:1006B80000FA05F24EEA020E20FA04F301FA05F2F6
:1006C80043EA020321FA04F001F0004121FA04F29E
:1006D80020EA020000EBD3705EEA430E08BF20EA6E
:1006E800D37070BD94F0000F0FD101F000464000A8
:1006F80041EB010111F4801F08BF013CF7D041EA2A
:10070800060195F0000F18BF704703F0004652002D
:1007180043EB030313F4801F08BF013DF7D043EAFE
:100728000603704794EA0C0F0CEA135518BF95EAB4
:100738000C0F0CD050EA410618BF52EA4306D1D13B
:1007480081EA030101F000414FF0000070BD50EA5A
:10075800410606BF1046194652EA430619D094EAE4
:100768000C0F02D150EA013613D195EA0C0F05D1CE
:1007780052EA03361CBF104619460AD181EA030122
:1007880001F0004141F0FE4141F470014FF00000DA
:1007980070BD41F0FE4141F4780170BD70B54FF075
:1007A800FF0C4CF4E06C1CEA11541DBF1CEA1355F5
:1007B80094EA0C0F95EA0C0F00F0A7F8A4EB0504D7
:1007C80081EA030E52EA03354FEA013100F08880CE
:1007D8004FEA03334FF0805545EA131343EA126397
:1007E8004FEA022245EA111545EA10654FEA00264C
:1007F8000EF000419D4208BF964244F1FD0404F505
:10080800407402D25B084FEA3202B61A65EB030560
:100818005B084FEA32024FF480104FF4002CB6EB1D
:10082800020E75EB030E22BFB61A754640EA0C009D
:100838005B084FEA3202B6EB020E75EB030E22BFDD
:10084800B61A754640EA5C005B084FEA3202B6EB1E
:10085800020E75EB030E22BFB61A754640EA9C00DD
:100868005B084FEA3202B6EB020E75EB030E22BFAD
:10087800B61A754640EADC0055EA060E18D04FEA6B
:10088800051545EA16754FEA06164FEAC30343EA0B
:1008980052734FEAC2025FEA1C1CC0D111F4801FD8
:1008A8000BD141EA00014FF000004FF0004CB6E7D1
:1008B80011F4801F04BF01430020B4F1FD0C88BF70
:1008C800BCF5E06F3FF6AFAEB5EB030C04BFB6EB7B
:1008D800020C5FEA500C50F1000041EB045170BD6E
:1008E8000EF0004E4EEA113114EB5C04C2BFD4EB9B
:1008F8000C0541EA045170BD41F480114FF0000E1F
:10090800013C90E645EA060E8DE60CEA135594EA9A
:100918000C0F08BF95EA0C0F3FF43BAF94EA0C0F9D
:100928000AD150EA01347FF434AF95EA0C0F7FF412
:1009380025AF104619462CE795EA0C0F06D152EA66
:1009480003353FF4FDAE1046194622E750EA41064A
:1009580018BF52EA43067FF4C5AE50EA41047FF45B
:100968000DAF52EA43057FF4EBAE12E74A0011D20D
:1009780012F5001211D20DD56FF47873B3EB6252F1
:100988000ED44FEAC12343F0004343EA505323FAFD
:1009980002F070474FF00000704750EA013002D172
:1009A8004FF0FF3070474FF0000070474FEA4102A8
:1009B800B2F1E04324BFB3F5001CDCF1FE5C0DD9B5
:1009C80001F0004C4FEAC0024CEA5070B2F1004FFF
:1009D80040EB830008BF20F00100704711F0804F02
:1009E80021D113F13872BCBF01F00040704741F4C7
:1009F80080114FEA5252C2F11802C2F1200C10FACB
:100A08000CF320FA02F018BF40F001004FEAC123AE
:100A18004FEAD32303FA0CFC40EA0C0023FA02F352
:100A28004FEA4303CCE77FEA625307D150EA013328
:100A38001EBF4FF0FE4040F44000704701F00040F8
:100A480040F0FE4040F40000704700BF80B400AFA3
:100A58002A4B1B68294A23F440331360284B9B68B0
:100A6800274A23F400639360254B5B68244A23F0EC
:100A780040735360224B5B68214A43F48073536090
:100A88001F4B9B681E4A43F4806393601C4B5B6852
:100A98001B4A23F400635360194B9B68184A43F0C0
:100AA80002039360164B9B68154A23F040539360EA
:100AB800134B5B68124A23F480535360104B9B68B6
:100AC8000F4A43F0020393600D4B9B680C4A23F4D2
:100AD800401393600A4B5B68094A23F480635360B0
:100AE800074B9B68064A23F001039360044B0022DE
:100AF8001A6000BFBD465DF8047B70470450014092
:100B08000020014080B483B000AF03460A46FB7161
:100B18001346BB710E4B9B680D4A43F0010393606B
:100B2800FB79012B05D10A4B9B68094A43F08043A6
:100B38009360BB79012B05D1054B9B68044A43F4AC
:100B48008003936000BF0C37BD465DF8047B704797
:100B58000020014080B483B000AF0346FB71FB79ED
:100B6800012B0FD10E4B9B680D4A43F480739360A1
:100B78000B4B9B680A4A43F400739360084B0022AE
:100B88001A6005E0064B9B68054A23F4807393605E
:100B9800044B18460C37BD465DF8047B704700BF10
:100BA800002001404C200140B0B483B000AF0346A0
:100BB8000A46FB711346BB71B879FA79274BA3FB38
:100BC8000213D9080B469B000B445B00D31ADBB217
:100BD8001A4613465B00134400FA03F31D462048E7
:100BE800FA791E4BA3FB0213D9080B469B000B4452
:100BF8005B00D31ADBB2C3F1010302339B00034449
:100C08005868FA79154BA3FB0213D9080B469B00C9
:100C18000B445B00D31ADBB21A4613465B0013443D
:100C2800072202FA03F3DB4318400D4CFA790B4B09
:100C3800A3FB0213D9080B469B000B445B00D31A95
:100C4800DBB2C3F1010345EA000202339B002344EF
:100C58005A6000BF0C37BD46B0BC7047CDCCCCCC79
:100C68000020014080B483B000AF03460A46FB7100
:100C78001346BB71FB79002B0AD1BB791B051946BA
:100C88000B4BDB6A23F47003094A0B43D36209E078
:100C9800BB791B051946064B9B6B23F44013044A8A
:100CA8000B43936300BF0C37BD465DF8047B704768
:100CB8000020014080B483B000AF0346FB710B46AF
:100CC800BB7113467B71FB79002B50D17B79052BC7
:100CD80016D8B9797A7913469B00134401FA03F3BD
:100CE8001846314B596B7A7913469B0013441F22DF
:100CF80002FA03F3DB430B402B4A034353634CE0F4
:100D08007B790B2B18D8B9797B799A1F13469B00EE
:100D1800134401FA03F31846234B196B7B799A1F86
:100D280013469B0013441F2202FA03F3DB430B40D4
:100D38001D4A0343136330E0B9797B79A3F10C02B0
:100D480013469B00134401FA03F31846164BD96A5D
:100D58007B79A3F10C0213469B0013441F2202FA6D
:100D680003F3DB430B40104A0343D36215E0B97920
:100D78007A7913469B00134401FA03F318460A4B89
:100D8800996B7A7913469B0013441F2202FA03F3E6
:100D9800DB430B40044A0343936300BF0C37BD4653
:100DA8005DF8047B704700BF0020014080B485B027
:100DB80000AFF8600B467A60FB72FA7AF96813465E
:100DC8005B001344DB000B4410331B68FA7A23F0F2
:100DD8000101F86813465B001344DB000344103339
:100DE8001960FA7AF96813465B001344DB000B4478
:100DF80024331B68FA7A23F00401F86813465B0071
:100E08001344DB000344243319607B685B789B013F
:100E18001846FA7AF96813465B001344DB000B4462
:100E280010331B6823F0C003FA7A40EA0301F8681C
:100E380013465B001344DB000344103319607B68DE
:100E4800DB785B021846FA7AF96813465B001344AC
:100E5800DB000B4410331B6823F40073FA7A40EA72
:100E68000301F86813465B001344DB0003441033A6
:100E780019607B681B799B021846FA7AF968134651
:100E88005B001344DB000B4410331B6823F48063BE
:100E9800FA7A40EA0301F86813465B001344DB0062
:100EA8000344103319607B685B791B041846FA7A8F
:100EB800F96813465B001344DB000B4410331B68CE
:100EC80023F44033FA7A40EA0301F86813465B00DA
:100ED8001344DB000344103319607B689B795B067D
:100EE8001846FA7AF96813465B001344DB000B4492
:100EF80010331B6823F06063FA7A40EA0301F8684C
:100F080013465B001344DB000344103319607B680D
:100F18001B785B011846FA7AF96813465B0013449C
:100F2800DB000B4410331B6823F02003FA7A40EAF5
:100F38000301F86813465B001344DB0003441033D5
:100F480019607B689B781B021846FA7AF968134681
:100F58005B001344DB000B4410331B6823F48073DD
:100F6800FA7A40EA0301F86813465B001344DB0091
:100F780003441033196000BF1437BD465DF8047B85
:100F8800704780B485B000AFF8600B467A60FB729A
:100F98007B689B7ADB021846FA7AF96813465B008D
:100FA8001344DB000B4410331B6823F4C053FA7A54
:100FB80040EA0301F86813465B001344DB0003446E
:100FC800103319607B689B7A5B031846FA7AF968D4
:100FD80013465B001344DB000B4410331B6823F4F7
:100FE800C043FA7A40EA0301F86813465B001344E9
:100FF800DB000344103319607B681A68FB7A1046DB
:10100800F9685A1C13465B001344DB000B44186054
:101018007B685A68FB7A1046F9685A1C13465B00CD
:101028001344DB000B44043318607B681B89FA7A8D
:101038001846F96813465B001344DB000B4414336D
:101048001860FA7AF96813465B001344DB000B4416
:1010580010331B68FA7A43F00101F86813465B0005
:101068001344DB0003441033196000BF1437BD4636
:101078005DF8047B704780B483B000AF78600B469E
:10108800FB701346BB70BB78032B13D8BA78FB7878
:101098005B0002FA03F318467B681A68FB785B006A
:1010A800032101FA03F3DB43134040EA03027B68A0
:1010B8001A6000E000BF0C37BD465DF8047B70473E
:1010C80080B483B000AF78600B46FB701346BB70EA
:1010D800BB78012B11D8BA78FB7802FA03F31846CB
:1010E8007B685A68FB78012101FA03F3DB4313405C
:1010F80040EA03027B685A6000E000BF0C37BD4637
:101108005DF8047B704780B483B000AF78600B460D
:10111800FB701346BB70BB78032B13D8BA78FB78E7
:101128005B0002FA03F318467B689A68FB785B0059
:10113800032101FA03F3DB43134040EA03027B680F
:101148009A6000E000BF0C37BD465DF8047B70472D
:1011580080B483B000AF78600B46FB701346BB7059
:10116800BB78022B13D8BA78FB785B0002FA03F33A
:1011780018467B68DA68FB785B00032101FA03F301
:10118800DB43134040EA03027B68DA6000E000BFFB
:101198000C37BD465DF8047B704780B483B000AF60
:1011A80078600B46FB701346BB70FB78072B13D88F
:1011B800BA78FB789B0002FA03F318467B681A6A30
:1011C800FB789B000F2101FA03F3DB43134040EA4D
:1011D80003027B681A6214E0BA78FB78083B9B002C
:1011E80002FA03F318467B685A6AFB78083B9B00AF
:1011F8000F2101FA03F3DB43134040EA03027B6843
:101208005A6200BF0C37BD465DF8047B704780B456
:1012180083B000AF78600B46FB701346BB70BB7899
:10122800012B09D17B685B69FA78012101FA02F286
:101238001A437B685A610CE0BB78002B09D17B68A4
:101248005B69FA78012101FA02F2D2431A407B68FD
:101258005A6100BF0C37BD465DF8047B704780B407
:1012680083B000AF78600B46FB707B681A69FB7827
:1012780022FA03F3DBB203F00103DBB218460C37A2
:10128800BD465DF8047B704780B483B000AF7860DA
:1012980039603B681B78032B00F2D48001A252F816
:1012A80023F000BFBD1200082113000885130008B1
:1012B800E91300087B689B6923F003027B689A6145
:1012C8003B681B7B002B06D07B681B6A43F002023D
:1012D8007B681A6205E07B681B6A23F002027B6860
:1012E8001A623B685B781B011A467B689B6923F08E
:1012F80070031A437B689A613B681B895A1E7B6896
:101308009A623B685A687B68DA627B689B6943F03B
:1013180008027B689A6196E07B689B6923F44072B7
:101328007B689A613B681B7B002B06D07B681B6A35
:1013380043F020027B681A6205E07B681B6A23F091
:1013480020027B681A623B685B781B031A467B683D
:101358009B6923F4E0431A437B689A613B681B89C5
:101368001A467B689A623B685A687B68DA627B68CF
:101378009B6943F400627B689A6164E07B68DB697F
:1013880023F003027B68DA613B681B7B002B06D0E5
:101398007B681B6A43F400727B681A6205E07B680D
:1013A8001B6A23F400727B681A623B685B781B0136
:1013B8001A467B68DB6923F070031A437B68DA619D
:1013C8003B681B891A467B689A623B685A687B6847
:1013D800DA627B68DB6943F008027B68DA6132E035
:1013E8007B68DB6923F440727B68DA613B681B7BAE
:1013F800002B06D07B681B6A43F400527B681A6294
:1014080005E07B681B6A23F400527B681A623B681C
:101418005B781B031A467B68DB6923F4E0431A43B5
:101428007B68DA613B681B891A467B689A623B686D
:101438005A687B68DA627B68DB6943F400627B6820
:10144800DA6100E000BF7B681B6843F080027B68BC
:101458001A603B689B7A5B011A467B681B6823F01D
:1014680060031A437B681A603B689B7A002B10D193
:101478003B68DB7A002B06D07B681B6843F01002C0
:101488007B681A6005E07B681B6823F010027B68A4
:101498001A603B681B78032B26D801A252F823F068
:1014A800B9140008C7140008D5140008E31400088C
:1014B8007B681B6A43F001027B681A6215E07B684F
:1014C8001B6A43F010027B681A620EE07B681B6A95
:1014D80043F480727B681A6207E07B681B6A43F4F6
:1014E80080527B681A6200E000BF7B681B6843F08B
:1014F80001027B681A6000BF0C37BD465DF8047BAB
:10150800704700BF80B485B000AFF8600B467A60C2
:10151800FB72FB7AFA680C339B0013447A685A60B2
:1015280000BF1437BD465DF8047B704780B500AF37
:101538004FF0804300221A614FF0804300225A6224
:10154800024B1B68984700BF80BD00BF1C000020ED
:1015580080B500AF034B00221A61034B5B689847C4
:1015680000BF80BD000400401C00002080B500AF13
:10157800034B00221A61034B9B68984700BF80BD4C
:10158800000800401C00002080B500AF034B00227B
:101598001A61034BDB68984700BF80BD000C004010
:1015A8001C00002080B400AF034B044A1A6000BF3F
:1015B800BD465DF8047B70470CED00E00005FA05B8
:1015C80080B400AF194B1B68184A43F0010313603D
:1015D800164B1B6823F0F803144A43F0800313608A
:1015E800134B1B68124A23F00303136000BF0F4B11
:1015F8001B6803F00203002BF9D00D4B1B6823F086
:10160800F0030B4A43F080031360094B1B68084A38
:1016180023F4E0531360064B1B68054A23F4604328
:10162800136000BFBD465DF8047B70470038024078
:101638000838024080B483B000AF03460A46FB7105
:101648001346BB71FB79072B6AD801A252F823F025
:10165800791600088F160008A5160008BB160008A2
:10166800D1160008E7160008FD1600081317000831
:101678002F4B1B68BA79012101FA02F211462C4A54
:101688000B4313604DE02B4B1B68BA79012101FA1B
:1016980002F21146274A0B43136042E0264B1B68AF
:1016A800BA79012101FA02F21146234A0B43136069
:1016B80037E0224B1B68BA79012101FA02F2114680
:1016C8001E4A0B4313602CE01D4B1B68BA7901219D
:1016D80001FA02F211461A4A0B43136021E0194B32
:1016E8001B68BA79012101FA02F21146154A0B4327
:1016F800136016E0144B1B68BA79012101FA02F253
:101708001146114A0B4313600BE0104B1B68BA7962
:10171800012101FA02F211460C4A0B43136000E062
:1017280000BF00BF0C37BD465DF8047B704700BFA3
:1017380030380240343802404038024044380240D1
:101748005038024054380240603802406438024041
:1017580080B500AF104B1B78002B11D10F4B1B68C5
:101768000E4A23F0020313600C4B1B680B4A23F04C
:10177800010313600A4B00221A600A4B00221A6008
:10178800094B1B68002B02D0074B1B689847034B7B
:101798001B6800BF80BD00BF3000002010E000E0E3
:1017A80014E000E018E000E02C0000200000000039
:1017B80090B585B000AFF860B9607A60BB689B7A75
:1017C800002B02D0012B72D0E1E0BB681B681846E1
:1017D800FEF740FE4FF000028F4BFEF7B5FE0246C3
:1017E8000B468BA1D1E90001FEF7D8FF02460B4654
:1017F80010461946FFF7BAF80346884AA2FB0323A6
:101808005B091C01BB681B681846FEF723FE4FF0F6
:101818000002814BFEF798FE02460B467CA1D1E9F7
:101828000001FEF7BBFF02460B4610461946FFF7BC
:101838009DF80246794BA3FB02135B09642101FB67
:1018480003F3D31A1B013233744AA2FB03235B0947
:1018580003F0F0031C44BB681B681846FEF7FAFD4A
:101868004FF000026C4BFEF76FFE02460B4668A174
:10187800D1E90001FEF792FF02460B4610461946D1
:10188800FFF774F80246654BA3FB02135B0964215A
:1018980001FB03F3D31A1B013233604AA2FB032373
:1018A8005B0903F00F03E218FB689A606FE0BB68FE
:1018B8001B681846FEF7CEFD02460B46FEF78EFC67
:1018C80002460B4652A1D1E90001FEF767FF024626
:1018D8000B4610461946FFF749F803464F4AA2FB44
:1018E80003235B091C01BB681B681846FEF7B2FDA1
:1018F80002460B46FEF772FC02460B4644A1D1E9AC
:101908000001FEF74BFF02460B4610461946FFF74B
:101918002DF80246414BA3FB02135B09642101FB2E
:1019280003F3D31ADB0032333C4AA2FB03235B09DF
:101938005B0003F4F8731C44BB681B681846FEF789
:1019480089FD02460B46FEF749FC02460B4630A1CC
:10195800D1E90001FEF722FF02460B461046194660
:10196800FFF704F802462D4BA3FB02135B09642121
:1019780001FB03F3D31ADB003233284AA2FB03230B
:101988005B0903F00703E218FB689A6000BFBB68B5
:101998009B7ADA03BB685B7A5B031A43BB681B79E3
:1019A8001B031A43BB689B799B021A43BB68DB790C
:1019B8005B0213431A46FB68DA60BB681B7A9B001C
:1019C8001A46FB68DB6823F00C031A43FB68DA60ED
:1019D800BB685B791A037B681B78DB021A437B6858
:1019E8009B785B021A437B685B789B021A437B688F
:1019F800DB781B0213431A46FB681A61FB68002256
:101A08001A6000BF1437BD4690BD00BFAFF3008019
:101A18000000000084D7A741000010401F85EB514B
:101A280080B483B000AF78607B68DB6843F4005211
:101A38007B68DA6000BF0C37BD465DF8047B7047F1
:101A480080B483B000AF78607B685B6943F0400284
:101A58007B685A617B68043318460C37BD465DF8CD
:101A6800047B704780B483B000AF78600B46FB708E
:101A7800FB78002B08D0012B0DD17B68DB6843F085
:101A880020027B68DA6007E07B68DB6823F02002CD
:101A98007B68DA6000E000BF00BF0C37BD465DF828
:101AA800047B704780B500AF034B00221A60034BDC
:101AB8001B68984700BF80BD00100140340000201B
:101AC80080B500AF034B00221A60034B1B68984790
:101AD80000BF80BD004400403800002080B500AF42
:101AE800034B00221A60034B1B68984700BF80BD58
:101AF800001401403C00002080B582B000AF00F027
:101B08005BF8294B4FF4FA621A60284B4FF47A724B
:101B18001A600121002000F005FA0023FB7105215D
:101B28002348FFF79CFB0346002B07D100220D2119
:101B38002048FFF76CFB0023FB711CE006211C48C2
:101B4800FFF78DFB0346002B02D10123FB7112E046
:101B580008211748FFF783FB0346002B02D1022315
:101B6800FB7108E007211248FFF779FB0346002BB9
:101B7800D5D10323FB71FB79002B02D100F026FAA3
:101B8800CBE7FB79012B02D100F080FBC5E7FB799D
:101B9800022B02D100F0BCFBBFE7FB79032BBCD1C1
:101BA80000F022FCB9E700BF5C00002058000020CC
:101BB800000002400008024090B58FB000AFFFF768
:101BC800FFFC00210020FFF735FD01210020FFF771
:101BD80031FD02210020FFF72DFD08210320FFF72A
:101BE80029FD16210020FFF725FD04210320FFF71A
:101BF80021FD01210220FFF71DFD02210220FFF730
:101C080019FDFFF7CFFC03220021BA48FFF733FA8A
:101C180003220121B748FFF72EFA03220221B54813
:101C2800FFF729FA03220321B248FFF724FA032217
:101C38000421B048FFF71FFA02220921AD48FFF737
:101C48001AFA02220A21AB48FFF715FA07220921DE
:101C5800A848FFF7A2FA07220A21A648FFF79DFA2B
:101C680002220421A448FFF706FA02220621A2480C
:101C7800FFF701FA022204219F48FFF78EFA022299
:101C880006219D48FFF789FA002205219948FFF7A8
:101C9800F2F9002206219748FFF7EDF90022072103
:101CA8009448FFF7E8F9002208219248FFF7E3F982
:101CB800012205218F48FFF74BFA012206218D48A2
:101CC800FFF746FA012207218A48FFF741FA012265
:101CD80008218848FFF73CFA012200218648FFF7CF
:101CE800CAF9012201218448FFF7C5F9012202211E
:101CF8008148FFF7C0F9012203217F48FFF7BBF9AC
:101D080001220D217D48FFF7B6F9002200217A480B
:101D1800FFF7D6F9002201217748FFF7D1F9002211
:101D280002217548FFF7CCF9002203217248FFF71A
:101D3800C7F9022200217048FFF7E5F902220121C4
:101D48006D48FFF7E0F9022202216B48FFF7DBF943
:101D5800022203216848FFF7D6F9002200216648CD
:101D6800FFF755FA002201216348FFF750FA0022D5
:101D780002216148FFF74BFA002203215E48FFF772
:101D880046FA01220D215D48FFF741FAFEF75EFE93
:101D980004210020FEF766FF00210020FEF704FF63
:101DA80000210120FEF700FF00210220FEF7FCFEC3
:101DB80000210320FEF7F8FE00210420FEF7F4FEC0
:101DC800002200210020FEF775FF012201210020DA
:101DD800FEF770FF022202210020FEF76BFF0322AC
:101DE80003210020FEF766FF042204210020FEF7ED
:101DF80061FF0120FEF7AEFE7863414A07F12C032C
:101E080092E8030018600433198002330A0C1A7030
:101E18007B6B3B623B4B7B6205233B85012387F849
:101E28002A3007F12C031A4600213748FEF7BEFF77
:101E380007F120031A4600213348FFF7A2F80021D2
:101E48000120FEF75FFE314A07F1140307CA83E851
:101E5800070000233B6107F1100207F1140319463C
:101E68002B48FFF7A5FC2A48FFF7DAFD0021284890
:101E7800FFF7F8FD022387F83130042387F8323062
:101E88002348FFF7DDFD03463B62224B7B620623B6
:101E98003B85002387F82A3007F12C031A460521D1
:101EA8001948FEF783FF07F120031A460521164853
:101EB800FFF767F8184B3C460FCB84E80F003B460A
:101EC80019461648FFF7E0F900233B703B461946D0
:101ED8001348FFF7D9F9002200211048FFF712FB39
:101EE800002200210E48FFF70DFB00BF3C37BD461E
:101EF80090BD00BF000002400004024000080240FC
:101F0800AC2400084000002000640240B42400080B
:101F18000010014060000020C024000800040040B8
:101F28000008004080B582B000AF03460A46FB7146
:101F38001346BB71FB79002B0AD1012200211E48F0
:101F4800FFF765F9002201211B48FFF760F909E056
:101F5800002200211848FFF75AF9012201211648EA
:101F6800FFF755F9BB79002B0AD10122022112484B
:101F7800FFF74DF9002203210F48FFF748F909E060
:101F8800002202210C48FFF742F9012203210A48E6
:101F9800FFF73DF9094B1B681A4600210848FFF76F
:101FA800B1FA084B1B681A4600210748FFF7AAFA3E
:101FB80000BF0837BD4680BD000402405C00002019
:101FC80000040040580000200008004080B588B098
:101FD80000AF0023FB770023BB830023FB7716E0C9
:101FE800FA7FFB7F484931F812205B0020333B44DD
:101FF80023F8102CFA7FFB7F434931F812205B004D
:1020080020333B4423F81C2CFB7F0133FB77FB7FF9
:10201800042BE5D93D4B4FF4FA621A603C4B4FF460
:10202800FA621A6001210020FFF77CFF0023BB83BE
:1020380037E00023FB772EE0FB7F334A32F813208A
:10204800FB7F5B0020333B4433F81C3C9A4209D9A0
:10205800FA7FFB7F2C4931F812205B0020333B4488
:1020680023F81C2CFB7F284A32F81320FB7F5B00E7
:1020780020333B4433F8103C9A4209D2FA7FFB7F65
:10208800214931F812205B0020333B4423F8102CFF
:10209800FB7F0133FB77FB7F042BCDD9BB8B01334F
:1020A800BB83BB8B40F6B7329342C2D90023FB7780
:1020B80019E0FB7F5B0020333B4433F8103C1A46A1
:1020C800FB7F5B0020333B4433F81C3C1344DA0F9E
:1020D80013445B101A46FB7F91B20E4A22F8131084
:1020E800FB7F0133FB77FB7F042BE2D9074B0022F0
:1020F8001A60074B00221A6001210020FFF712FF27
:1021080000BF2037BD4680BD400000205C00002095
:10211800580000204C00002080B582B000AF4E4B24
:102128009B881846FEF7A6F902460B464FF00000BA
:102138004A49FEF751F802460B461046194644A391
:10214800D3E90023FEF700FA02460B46104619466B
:10215800FEF72CFC0346424A1360414BD3ED007A4C
:10216800B2EE047A67EE877A3E4BC3ED007A3E4BB7
:102178003E4A1A60384B5B881A46374BDB88D31ABD
:102188003B4A13603A4B1B683A4A13603A4B1A6849
:10219800374B1B681344384A1360354B1A68374B62
:1021A8001B68D31A364A1360314B1B68334A1360D5
:1021B800304B1B6807EE903AB8EEE77A284BD3ED20
:1021C800007A27EE277A2E4B1B6807EE903AF8EE36
:1021D800E76A244BD3ED007A66EEA77A37EE277AC2
:1021E800254B1B6807EE903AF8EEE76A1E4BD3EDD5
:1021F800007A66EEA77A77EE277AFDEEE77A17EE91
:10220800903A7B607B6803F5FA631A461D4B1A60A7
:102218007B68C3F5FA631A461B4B1A60194B1B6897
:10222800B3F5805F03D3174B40F6FF721A60164B65
:102238001B68B3F5805F03D3134B40F6FF721A6037
:1022480000210020FFF76EFE00BF0837BD4680BDA5
:10225800613255302AA9433F4000002000408F409A
:10226800680000206C0000207000002017B7D138EB
:10227800740000207C0000208000002078000020EE
:1022880084000020580000205C00002080B500AFCA
:102298001B4B1A881B4B1B889A4205D9184B1A8965
:1022A800184B1B899A4229D8154B1A89154B1B893B
:1022B8009A420BD9144B40F6FF721A60134B002256
:1022C8001A6000210020FFF72DFE18E00C4B1A8839
:1022D8000C4B1B889A420BD90B4B00221A600B4BF4
:1022E80040F6FF721A6000210020FFF71BFE06E08F
:1022F800034B9A88034B9B889A42C9E700BFC7E7FC
:10230800400000204C000020580000205C00002005
:1023180080B582B000AF00237B602E4B1A882E4B0D
:102328001B889A4205D82B4B1A892B4B1B899A423A
:102338004CD92A4A7B6813441B78522B11D1284B5D
:1023480040F6FF721A60274B00221A600021002015
:10235800FFF7E8FD0023FB7000BFFB780133FB703B
:10236800FAE71E4A7B6813441B784C2B11D11C4B8F
:1023780000221A601B4B40F6FF721A6000210020F1
:10238800FFF7D0FD0023BB7000BFBB780133BB70E3
:10239800FAE7124A7B6813441B78462B12D1104B7C
:1023A80040F6FF721A600F4B40F6FF721A60002168
:1023B8000020FFF7B7FD00237B7000BF7B78013357
:1023C8007B70FAE77B6801337B6001E0FFF7A4FECE
:1023D800A3E700BF400000204C0000206000002060
:1023E800580000205C00002080B400AFFEE7000029
:1023F8000D488546AFF300800C480D490D4A00236F
:1024080002E0D458C4500433C4188C42F9D30A4AA1
:102418000A4C002301E013600432A242FBD300F00F
:1024280011F8FFF769FBFEE700000120000000201B
:1024380000000020D82400080000002088000020A8
:10244800FEE7000070B50D4D0D4C641BA41000266E
:10245800A64209D10B4D0C4C00F018F8641BA410CF
:102468000026A64205D170BD55F8043B98470136B1
:10247800EEE755F8043B98470136F2E7D024000808
:10248800D0240008D0240008D4240008F8B500BFE0
:10249800F8BC08BC9E467047F8B500BFF8BC08BC3D
:0424A8009E46704795
:1024AC000000010001030000802500000000000076
:1024BC000300000000060000FF0F000001000000F8
:0424CC00000000000C
:0424D000BD01000842
:0424D4009901000862
:04000005080023F9D3
:00000001FF
